{
  "contractName": "Ownable",
  "abi": [
    {
      "inputs": [],
      "stateMutability": "payable",
      "type": "constructor"
    },
    {
      "inputs": [],
      "name": "isOwner",
      "outputs": [
        {
          "internalType": "bool",
          "name": "",
          "type": "bool"
        }
      ],
      "stateMutability": "view",
      "type": "function"
    }
  ],
  "bytecode": "0x6080604052336000806101000a81548173ffffffffffffffffffffffffffffffffffffffff021916908373ffffffffffffffffffffffffffffffffffffffff160217905550610106806100536000396000f3fe6080604052348015600f57600080fd5b506004361060285760003560e01c80638f32d59b14602d575b600080fd5b60336047565b604051603e919060b7565b60405180910390f35b60008060009054906101000a900473ffffffffffffffffffffffffffffffffffffffff1673ffffffffffffffffffffffffffffffffffffffff163373ffffffffffffffffffffffffffffffffffffffff1614905090565b60008115159050919050565b60b181609e565b82525050565b600060208201905060ca600083018460aa565b9291505056fea2646970667358221220c0a636ea133e8b8a23827722108fc1d94f854bf8e49aeec535951e27c812c65564736f6c634300080e0033",
  "immutableReferences": {},
  "source": "// SPDX-License-Identifier: GPL-3.0\npragma solidity >=0.7.0 <0.9.0;\n\ncontract Ownable{\n    address payable _owner;\n    constructor() payable {\n        _owner = payable(msg.sender);\n    }\n\n    modifier onlyOwner() {\n        require(isOwner(),\"You are not the owner.\");\n        _;\n    }\n\n    function isOwner() public view returns(bool) {\n        return (msg.sender == _owner);\n    }\n}",
  "sourcePath": "/Users/harkumbh1/Documents/Blockchain/Udemy-ETH-Truffle/scm/contracts/Ownable.sol",
  "compiler": {
    "name": "solc",
    "version": "0.8.14+commit.80d49f37.Emscripten.clang"
  },
  "schemaVersion": "3.4.7",
  "updatedAt": "2022-06-05T14:44:41.792Z",
  "devdoc": {
    "kind": "dev",
    "methods": {},
    "version": 1
  },
  "userdoc": {
    "kind": "user",
    "methods": {},
    "version": 1
  }
}